:1008B30011083F065B4F666D7D077F6F777C395E5E
:0308C30079710048
:0708DD00AE071FEE70FA22C6
:10088C0030B10630B00320B21220B1037F01222018
:10089C00B0037F022220B20E7F032230B10830B0A9
:0708AC000530B2027F0022BB
:0E08C700D2A2D2A3D2A474082FF8E6F58022A4
:0808D50012088C1208C780F81C
:03000000020800F3
:0C080000787FE4F6D8FD758118020847E7
:10080C000208D5E493A3F8E493A34003F68001F225
:10081C0008DFF48029E493A3F85407240CC8C333ED
:10082C00C4540F4420C8834004F456800146F6DFBC
:10083C00E4800B01020408102040809008B3E47E91
:10084C00019360BCA3FF543F30E509541FFEE493B1
:10085C00A360010ECF54C025E060A840B8E493A378
:10086C00FAE493A3F8E493A3C8C582C8CAC583CAA3
:10087C00F0A3C8C582C8CAC583CADFE9DEE780BE5B
:0108C6000031
:00000001FF
